:020000040000FA
:020000002F28A7
:040002000034003492
:08000800C0000308C1000B1940
:100010000E2841088300C00E400E0900FB308B05FE
:10002000C70B2028FF30C7000330450603192628D8
:1000300002304506031929280130450603192C28EA
:10004000C503410E8300C00E400E09000430870036
:1000500020280130870020280230870020283030F7
:100060009000403084008001840A841F33280301FB
:1000700085000008DF398E00030189000830860002
:100080000F30B0000301870092209220922092202E
:10009000851D572804308700922092200130870068
:1000A0009220922002308700922092204A289220AB
:1000B000922092209220851D7D285E284C30D10010
:1000C000C90FD10B66284A28C80F66288A20851DCB
:1000D00060288A20851D60288A2085196C288A203E
:1000E00085196C2804308700922092200130870007
:1000F00092209220023087005E2892209220483081
:10010000D000922092209220922085195E28D00B58
:1001100081284A2864000000000000000000000060
:10012000000008004B30C4009820C40B942808003D
:100130000A30C3008A208A208A208A208A20C30BA2
:040140009A280800F1
:02400E009C3CD8
:00000001FF
