:020000040000FA
:020000002F28A7
:040002000034003492
:08000800C0000308C1000B1940
:100010000E2841088300C00E400E0900FB308B05FE
:10002000C70B2028FF30C7000330450603192628D8
:1000300002304506031929280130450603192C28EA
:10004000C503410E8300C00E400E09000430870036
:1000500020280130870020280230870020283030F7
:100060009000403084008001840A841F33280301FB
:1000700085000008DF398E00030189000830860002
:100080000F30B000030187009D209D209D209D2002
:10009000851D57289D209D20043087009D209D2090
:1000A000013087009D209D20023087004A289D2036
:1000B0009D209D209D209D209D20851D7C284A28D7
:1000C000C90F6528C80F652842289520851D60281E
:1000D0009520851D6028952085196B289520851908
:1000E0006B28043087009D209D20013087009D20D3
:1000F0009D200230870060284830D00085194A28AA
:100100009D2085194A289D2085194A289D208519FA
:100110004A289D2085194A289D2085194A289D2016
:1001200085194A28D00B7E284A2864000000000068
:10013000000000000000000008004B30C400A320B5
:10014000C40B9F2808000A30C300952095209520F5
:0A01500095209520C30BA528080098
:02400E009C3CD8
:00000001FF
