:020000040000FA
:020000002928AD
:040002000034003492
:08000800952085195628090016
:10001000FB308B05C70B1A28FF30C700033045069D
:10002000031920280230450603192328013045060C
:1000300003192628C503410E8300C00E400E090097
:10004000043087001A28013087001A280230870000
:100050001A2830309000403084008001840A841FC8
:100060002D28030185000008DF398E000E170301DB
:100070008900083086000F30B000D0308B00FF3090
:10008000C700030187009D209D209D209D20851D88
:100090007528043087009D209D20013087009D2019
:1000A0009D20023087009D209D2049284C30D100A2
:1000B000C90FD10B5E288628C80F5E289520851DA4
:1000C00058289520851D5828952085196428952045
:1000D00085196428043087009D209D200130870009
:1000E0009D209D200230870056285030D0000430DB
:1000F00087009D209D20013087009D209D200000CD
:100100009D20851956289D20D00B77280430870024
:100110009D209D20013087009D209D20023087007A
:100120009D20851956289D20862864000000000027
:10013000000000000000000008004B30C400A320B5
:10014000C40B9F2808000A30C300952095209520F5
:0A01500095209520C30BA528080098
:02400E009C3CD8
:00000001FF
