:020000040000FA
:020000002F28A7
:040002000034003492
:08000800C0000308C1000B1940
:100010000E2841088300C00E400E0900FB308B05FE
:10002000C70B2028FF30C7000330450603192628D8
:1000300002304506031929280130450603192C28EA
:10004000C503410E8300C00E400E09000430870036
:1000500020280130870020280230870020283030F7
:100060009000403084008001840A841F33280301FB
:1000700085000008DF398E00030189000830860002
:100080000F30B00003018700AC20AC20AC20AC20C6
:10009000851D5C2804308700AC20AC20013087002F
:1000A000AC20AC2002308700A420A420A420A420EF
:1000B000AC20AC2000004A2800000000AC20AC209E
:1000C00000000000AC20AC20A420A420851D8828BE
:1000D00069284C30D100C90FD10B71284A28C80FAC
:1000E0007128A420851D6B28A420851D6B28A420C1
:1000F00085197728A4208519772804308700AC203B
:10010000AC2001308700AC20AC2002308700692889
:10011000A420A42085196928AC20AC206430D0002C
:10012000AC20AC20851969280000AC20AC20A420AC
:10013000A42085196928A420A42085196928AC2049
:10014000AC20D00B90284A2864000000000000007A
:1001500000000000000008004B30C400B220C40BB7
:10016000AE2808000A30C300A420A420A420A420A4
:08017000A420C30BB428080011
:02400E009C3CD8
:00000001FF
