:020000040000FA
:020000002F28A7
:040002000034003492
:08000800C0000308C1000B1940
:100010000E2841088300C00E400E0900FB308B05FE
:10002000C70B2028FF30C7000330450603192628D8
:1000300002304506031929280130450603192C28EA
:10004000C503410E8300C00E400E09000430870036
:1000500020280130870020280230870020283030F7
:100060009000403084008001840A841F33280301FB
:1000700085000008DF398E00030189000830860002
:100080000F30B00003018700A220A220A220A220EE
:10009000851D5B2804308700A220A2200130870044
:1000A000A220A220023087009A209A209A209A202B
:1000B000A220A2204A28A220A220A220A2209A2088
:1000C000851D822863283030D100C90FD10B6B28E1
:1000D0004A28C80F6B289A20851D65289A20851DFF
:1000E00065289A20851971289A208519712804306D
:1000F0008700A220A22001308700A220A220023087
:10010000870063289A2085196328A220A2206430E2
:10011000D000A220A220A220A2209A209A208519F5
:1001200063289A209A2085196328A220A220D00B48
:1001300089284A2864000000000000000000000038
:10014000000008004B30C400A820C40BA4280800FD
:100150000A30C3009A209A209A209A209A20C30B32
:04016000AA280800C1
:02400E009C3CD8
:00000001FF
