:020000040000FA
:020000002F28A7
:040002000034003492
:08000800C0000308C1000B1940
:100010000E2841088300C00E400E0900FB308B05FE
:10002000C70B2028FF30C7000330450603192628D8
:1000300002304506031929280130450603192C28EA
:10004000C503410E8300C00E400E09000430870036
:1000500020280130870020280230870020283030F7
:100060009000403084008001840A841F33280301FB
:1000700085000008DF398E00030189000830860002
:100080000F30B00003018700B020B020B020B020B6
:10009000851D6328000004308700B020B0200130A7
:1000A0008700B020B02002308700A820A820A82018
:1000B000A820B020B02000000000000000000000D8
:1000C000000000004A28B020B02000000000B0204E
:1000D000B020A820A820851D8D286E284C30D10086
:1000E000C90FD10B76284A28C80F7628A820851D6D
:1000F0007028A820851D7028A82085197C28A82094
:1001000085197C2804308700B020B020013087009A
:10011000B020B020023087006E28A820A8208519C2
:100120006E28B020B0206430D000B020B020000095
:100130000000B020B020A820A82085196E28A82093
:10014000A82085196E28B020B020D00B95284A2809
:100150006400000000000000000000000000080033
:100160004B30C400B620C40BB22808000A30C300CC
:10017000A820A820A820A820A820C30BB8280800E1
:02400E009C3CD8
:00000001FF
