:020000040000FA
:020000002F28A7
:040002000034003492
:08000800C0000308C1000B1940
:100010000E2841088300C00E400E0900FB308B05FE
:10002000C70B2028FF30C7000330450603192628D8
:1000300002304506031929280130450603192C28EA
:10004000C503410E8300C00E400E09000430870036
:1000500020280130870020280230870020283030F7
:100060009000403084008001840A841F33280301FB
:1000700085000008DF398E00030189000830860002
:100080000F30B000030187009E209E209E209E20FE
:10009000851D5728043087009E209E200130870050
:1000A0009E209E20023087009E209E204A289E206F
:1000B0009E209E209E20851D7F289E209E206028B9
:1000C0003030D100C90FD10B68284A28C80F6828E2
:1000D0009620851D62289620851D62289620851908
:1000E0006E28962085196E28043087009E209E2059
:1000F000013087009E209E200230870060289E20CD
:100100009E206430D000851960289E2085196028C3
:100110009E20851960289E20851960289E208519BB
:100120006028D00B83289E209E204A28640000006F
:100130000000000000000000000008004B30C40078
:10014000A420C40BA02808000A30C30096209620E3
:0C015000962096209620C30BA6280800DD
:02400E009C3CD8
:00000001FF
